:020000040800F2
:1000000000020020E5010008AD0400081504000806
:10001000AD040008AD040008AD040008AD040008FC
:10002000AD040008AD040008AD0400085D0A000836
:10003000AD040008AD040008C90B0008050C000859
:10004000AD040008AD040008AD040008AD040008CC
:10005000AD040008AD040008AD040008AD040008BC
:10006000AD040008AD040008AD040008AD040008AC
:10007000AD040008AD040008AD040008AD0400089C
:10008000AD040008AD040008AD040008AD0400088C
:10009000AD040008AD040008AD040008AD0400087C
:1000A000AD040008AD040008AD040008AD0400086C
:1000B000AD040008AD040008AD040008AD0400085C
:1000C000AD040008AD040008AD040008AD0400084C
:1000D000AD040008AD04000859050008AD0400088F
:1000E000AD040008AD040008AD040008AD0400082C
:1000F000AD040008AD040008AD040008AD0400081C
:10010000AD040008AD040008AD040008AD0400080B
:10011000AD040008AD040008AD040008AD040008FB
:10012000AD040008AD040008AD040008AD040008EB
:10013000AD040008AD040008AD040008AD040008DB
:10014000AD040008AD040008AD040008AD040008CB
:10015000AD040008AD040008AD040008AD040008BB
:10016000AD040008AD040008AD040008AD040008AB
:10017000AD040008AD040008AD040008AD0400089B
:10018000AD040008AD04000810B5054C237833B960
:10019000044B13B10448AFF300800123237010BD5A
:1001A0000C020020000000005C170008084B10B58E
:1001B0001BB108480849AFF300800848036803B939
:1001C00010BD074B002BFBD0BDE81040184700BF07
:1001D000000000005C170008100200200C02002044
:1001E000000000001448804700201449144A91423E
:1001F0003CBF41F8040BFAE700201249124A914231
:100200003CBF41F8040BFAE700201049104A914224
:100210003CBF41F8040BFAE70E490F4A0F4B9A42D4
:100220003EBF51F8040B42F8040BF8E70C48804736
:100230000C488047FEE770473702000800000020A6
:1002400000C0012000C001200000022000000010BA
:10025000000001107C170008000200200C020020A2
:10026000370200080116000880B400AF1D4A1D4B7C
:100270001B6843F48033136000BF1A4B1B6803F400
:100280000033002BF9D0184B40F204721A60154B62
:10029000164A5A60134A134B1B6843F0807313606D
:1002A00000BF104B1B6803F00073002BF9D00D4A00
:1002B0000C4B9B6843F4144343F00203936000BF6C
:1002C000084B9B6803F00803002BF9D0084A084B41
:1002D000D3F8883043F47003C2F88830BD465DF827
:1002E000047B704700380240003C0240042A40076B
:1002F00000ED00E080B485B000AFF860B9607A60CE
:10030000FB681B68BA685200032101FA02F2D2436B
:100310001A40FB681A60FB681B68BA68520079686B
:1003200001FA02F21A43FB681A601437BD465DF801
:10033000047B704780B485B000AFF860B9607A6024
:10034000FB689B68BA685200032101FA02F2D243AB
:100350001A40FB689A60FB689B68BA68520079682B
:1003600001FA02F21A43FB689A601437BD465DF841
:10037000047B704780B485B000AFF860B9607A60E4
:10038000BB68072B17DDFB685B6ABA68083A920006
:100390000F2101FA02F2D2431A40FB685A62FB684D
:1003A0005B6ABA68083A9200796801FA02F21A4365
:1003B000FB685A6214E0FB681B6ABA6892000F215E
:1003C00001FA02F2D2431A40FB681A62FB681B6A08
:1003D000BA689200796801FA02F21A43FB681A625D
:1003E0001437BD465DF8047B704700BF80B400AF92
:1003F000BFF34F8F0549054BDB6803F4E062044B04
:100400001343CB60BFF34F8FFEE700BF00ED00E06A
:100410000400FA0504207146084203D0EFF3098076
:1004200000F004B8EFF3088000F000B880B590B099
:1004300000AF78607B681B68FB637B685B68BB63AD
:100440007B689B687B637B68DB683B637B681B69BD
:10045000FB627B685B69BB627B689B697B627B68D4
:10046000DB693B620B4B1B68FB610B4B1B68BB6181
:100470000A4B1B687B610A4B1B683B61094B1B687D
:10048000BB60094B1B68FB60FFF7B0FF4037BD4600
:1004900080BD00BF28ED00E02CED00E030ED00E075
:1004A0003CED00E034ED00E038ED00E0684620F07F
:1004B00007018D4681B400AFFEE700BF80B483B072
:1004C00000AF0346FB71084997F907305B09FA79D9
:1004D00002F01F02012000FA02F241F823200C373B
:1004E000BD465DF8047B704700E100E080B500AFD9
:1004F000154A154B1B6B43F001031363134802218C
:100500000222FFF7F7FE114802210722FFF732FF10
:100510000D4A0D4B1B6C43F4003313640C4B41F23A
:1005200017121A810A4B42F208029A812620FFF71D
:10053000C5FF084B00225A60064B00229A60054B0B
:1005400000221A7380BD00BF003802400000024044
:10055000004400402802002090B400AF184B1B68F4
:10056000002B1BD0174B1B68002B17D01648174BBE
:100570001A68164B5B68591C144C616013441B7855
:100580009BB28380114B5A68104B9B689A4205D1ED
:100590000B4B00221A600E4B01221A600C4B1B6899
:1005A000002B09D00B4B1B68002B05D0084B0022F9
:1005B0001A60064B00221A73BD4690BC704700BFFC
:1005C0009C8108421C800842004400402802002010
:1005D000988108421880084280B586B000AF7860E4
:1005E0000023FB6000F016FC3E4B1B68002B01D182
:1005F00000F0D6F83C4B1A687B681340002B64D19E
:100600007B68002B0ED008231A467B6813447B605E
:100610007B6803F00703002B04D07B6823F00703FB
:1006200008337B607B68002B4FD0304B1B687A68A7
:100630009A424AD82E4B3B612D4B1B687B6104E0EC
:100640007B693B617B691B687B617B695A687B685E
:100650009A4203D27B691B68002BF1D1214B1B68A6
:100660007A699A4231D03B691B6808221344FB60C7
:100670007B691A683B691A607B695A687B68D31A80
:100680000822520093420FD97A697B681344BB60F9
:100690007B695A687B68D21ABB685A607B697A6842
:1006A0005A60B86800F0CAF8104B1A687B695B683A
:1006B000D31A0E4A13607B695A680B4B1B681A43A6
:1006C0007B695A607B6900221A6000F0B1FBFB680D
:1006D000002B01D100F00AF9FB6818461837BD4617
:1006E00080BD00BF40120020441200200002002004
:1006F0003812002080B584B000AF78607B68FB6062
:100700007B68002B38D008235B42FA681344FB60F7
:10071000FB68BB60BB685A68194B1B681340002B11
:1007200002D100F043FAFEE7BB681B68002B02D041
:1007300000F03CFAFEE7BB685A68114B1B68134097
:10074000002B19D0BB681B68002B15D1BB685A68F9
:100750000B4B1B68DB431A40BB685A6000F05AFB26
:10076000BB685A68074B1B681344064A1360B86895
:1007700000F064F800F05CFB1037BD4680BD00BFA0
:10078000441200200002002080B400AF034B1B681D
:100790001846BD465DF8047B704700BF000200208C
:1007A00080B584B000AF204B23F00703FB601F4AE5
:1007B000FB6813601D4B00225A6040F6F872FB681C
:1007C0001344BB6008235B42BA681344BB60184AF9
:1007D000BB681360164B1B6803F00703002B02D0A5
:1007E00000F0E4F9FEE7124B1B6800225A60104B40
:1007F0001B6800221A60FB687B6040F6F8730822D1
:100800009A1A7B685A600A4B1A687B681A60094B0F
:100810001B6808229B1A074A1360074B4FF00042DF
:100820001A601037BD4680BD4002002038120020FB
:1008300040120020000200204412002080B485B045
:1008400000AF7860274BFB6002E0FB681B68FB6031
:10085000FB681A687B689A42F7D3FB68BB60FB6849
:100860005B68BA681A447B689A4208D1FB685A6888
:100870007B685B681A44FB685A60FB687B607B6836
:10088000BB607B685B68BA681A44FB681B689A4265
:1008900018D1FB681A68144B1B689A420DD07B680C
:1008A0005A68FB681B685B681A447B685A60FB687F
:1008B0001B681A687B681A6008E00B4B1A687B6833
:1008C0001A6003E0FB681A687B681A60FA687B6844
:1008D0009A4202D0FB687A681A601437BD465DF808
:1008E000047B7047381200204012002080B400AF13
:1008F000FEE700BF80B483B000AF78603960FEE7E8
:1009000080B582B000AFFFF73FFF03467B6008373A
:10091000BD4680BD80B483B000AF78607B6803F1D2
:1009200008027B685A607B684FF0FF329A607B68F0
:1009300003F108027B68DA607B6803F108027B68D8
:100940001A617B6800221A600C37BD465DF8047B93
:10095000704700BF80B483B000AF78607B6800222E
:100960001A610C37BD465DF8047B704780B485B0D2
:1009700000AF786039607B685B68FB603B68FA6851
:100980005A60FB689A683B689A60FB689B683A68A3
:100990005A60FB683A689A603B687A681A617B68BB
:1009A0001B685A1C7B681A601437BD465DF8047BCF
:1009B000704700BF80B485B000AF78607B685B682B
:1009C0007A6892689A607B689B687A6852685A6015
:1009D0007B681B69FB60FB685A687B689A4203D19D
:1009E0007B689A68FB685A607B6800221A61FB6822
:1009F0001B685A1EFB681A60FB681B681846143790
:100A0000BD465DF8047B704780B485B000AFF860E8
:100A1000B9607A60FB68043BFB60FB684FF0807252
:100A20001A60FB68043BFB60BA68FB681A60FB68ED
:100A3000043BFB60FB6800221A60FB68143BFB6010
:100A40007A68FB681A60FB68203BFB60FB6818460D
:100A50001437BD465DF8047B704700BF064B19682C
:100A60000868B0E8F00F80F309884FF0000080F3C9
:100A700011884EF00D0E7047501200200348006898
:100A8000006880F3088862B600DF00BF08ED00E070
:100A900080B584B000AF274BFB60FB681B78DBB2EE
:100AA000BB60FB68FF221A70FB681B78DBB2FB712E
:100AB000FB79DBB203F05003DAB21F4B1A701F4B05
:100AC00007221A6009E01D4B1B68013B1B4A13609B
:100AD000FB79DBB25B00DBB2FB71FB79DBB2DBB233
:100AE0005BB2002BEFDB154B1B681B02134A136034
:100AF000124B1B6803F4E063104A1360BB68DAB260
:100B0000FB681A700E4A0E4B1B6843F470031360A7
:100B10000B4A0B4B1B6843F07043136000F086F8E0
:100B2000084B00221A60FFF7A9FF00231846103770
:100B3000BD4680BD00E400E0481200204C120020B9
:100B400020ED00E00402002080B400AF054B4FF020
:100B500080521A60BFF34F8FBFF36F8FBD465DF8B1
:100B6000047B704704ED00E080B500AF00F01EF894
:100B7000044B1B680133034A1360BFF34F8FBFF36D
:100B80006F8F80BD0402002080B500AF064B1B684C
:100B9000013B054A1360044B1B68002B02D1002067
:100BA00000F00EF880BD00BF04020020EFF31180BA
:100BB0004FF0500181F3118870470023184600BFA1
:100BC00080F31188704700BFEFF309800C4B1A685F
:100BD00020E9F00F10602DE908404FF0500080F33D
:100BE000118800F077FA4FF0000080F31188BDE81B
:100BF000084019680868B0E8F00F80F3098870476A
:100C00005012002080B500AFFFF7D0FF00F09CF934
:100C10000346002B03D0044B4FF080521A60002093
:100C2000FFF7CEFF80BD00BF04ED00E080B400AF51
:100C3000044B054A1A60054B07221A60BD465DF851
:100C4000047B704714E000E03F90020010E000E0F9
:100C500080B58AB002AFF860B9603B601346FB8094
:100C6000FB68002B02D1FFF7A1FFFEE7BB6A092B4F
:100C700002D9FFF79BFFFEE7FB881846396B00F0AF
:100C800069FBB861BB69002B6ED0BB691A6BFB882E
:100C900003F18043013B9B0013447B617B6923F09C
:100CA00007037B617B6903F00703002B02D0FFF78A
:100CB0007DFFFEE7FB880093B869B968BA6A7B6B71
:100CC00000F088FA7869F9683A68FFF79DFE0246F5
:100CD000BB691A60FB6A002B02D0FB6ABA691A6012
:100CE000FFF742FF2C4B1B6801332B4A13602B4B41
:100CF0001B68002B09D1294ABB691360264B1B686E
:100D0000012B0FD100F0AEFA0CE0254B1B68002B35
:100D100008D1224B1B68DA6ABB6A9A4202D81F4A82
:100D2000BB6913601F4B1B6801331E4A1360BB690C
:100D3000DA6A1D4B1B689A4203D9BB69DB6A1A4AFF
:100D40001360BB69DA6A13469B0013449B00174A81
:100D50001A44BB69043310461946FFF707FE012306
:100D6000FB61FFF711FF02E04FF0FF33FB61FB690E
:100D7000012B0BD10A4B1B68002B07D0074B1B68BC
:100D8000DA6ABB6A9A4201D2FFF7DEFEFB691846B7
:100D90002037BD4680BD00BF8C13002050120020BC
:100DA00098130020AC13002094130020541200204C
:100DB00080B586B004AF0023009300230193002385
:100DC0000293002303930F480F4940220023FFF7AB
:100DD0003FFF78607B68012B0AD1FFF7E7FE0B4BE2
:100DE00001221A600A4B00221A60FFF751FE05E04B
:100DF0007B68002B02D1FFF7D9FEFEE70837BD461E
:100E000080BD00BFC11100083C17000898130020E6
:100E10009013002080B400AF044B1B680133034AD9
:100E20001360BD465DF8047B704700BF9C13002033
:100E300080B584B000AF0023FB600023BB603A4B59
:100E40001B68002B02D1FFF7B1FEFEE7FFF78CFE17
:100E5000354B1B68013B344A1360334B1B68002B36
:100E60005AD1324B1B68002B56D02EE0304BDB683A
:100E7000DB687B607B6818331846FFF79BFD7B6857
:100E800004331846FFF796FD7B68DA6A294B1B6826
:100E90009A4203D97B68DB6A264A13607B68DA6A68
:100EA00013469B0013449B00234A1A447B68043377
:100EB00010461946FFF75AFD7B68DA6A1F4B1B681C
:100EC000DB6A9A4201D30123BB60194B1B68002BDC
:100ED000CCD11B4B1B68002B10D00BE000F034F87A
:100EE0000346002B01D00123BB60154B1B68013B5F
:100EF000134A1360124B1B68002BEFD1BB68012B08
:100F000003D0104B1B68012B06D10123FB600D4B56
:100F100000221A60FFF718FEFFF736FEFB6818463E
:100F20001037BD4680BD00BF9C1300208C130020ED
:100F30004C13002094130020541200205012002063
:100F4000A0130020A413002080B586B000AF0023BA
:100F50007B61564B1B68002B40F09D80544B1B68F7
:100F60000133534A1360524B1B683B613B69002BB2
:100F70002ED1504B1B681B68002B02D0FFF716FECA
:100F8000FEE74C4B1B68FB604B4B1B68494A1360E8
:100F9000494AFB681360494B1B680133474A136099
:100FA000444B1B681B68002B01D1012300E0002388
:100FB000002B04D0424B4FF0FF321A6008E03D4B4B
:100FC0001B68DB68DB68BB60BB685B683C4A13601E
:100FD0003B4B1B683A699A424ED3364B1B681B68E1
:100FE000002B01D1012300E00023002B04D0344B5F
:100FF0004FF0FF321A603FE02E4B1B68DB68DB6866
:10100000BB60BB685B687B603A697B689A4203D2CD
:101010002B4A7B6813602FE0BB6804331846FFF748
:10102000C9FCBB689B6A002B04D0BB681833184608
:10103000FFF7C0FCBB68DA6A224B1B689A4203D9EF
:10104000BB68DB6A1F4A1360BB68DA6A13469B0001
:1010500013449B001C4A1A44BB68043310461946CB
:10106000FFF784FCBB68DA6A184B1B68DB6A9A429C
:1010700001D301237B61B0E7144B1B68DA6A124984
:1010800013469B0013449B000B441B68012B07D99C
:1010900001237B6104E00E4B1B6801330C4A136093
:1010A0007B6918461837BD4680BD00BF9C130020E1
:1010B000901300204413002048130020A8130020A0
:1010C0000802002094130020541200205012002027
:1010D000A013002080B582B000AF334B1B68002BFB
:1010E00003D0324B01221A605AE0314B1B681A6858
:1010F0002F4B1B681B6B9A4208D82D4B1A682C4B40
:101100001B68343310461946FFF7F4FB284B1B6865
:101110001B6B18462749142200F090FA0346002B57
:1011200008D0234B1A68224B1B68343310461946EB
:10113000FFF7E0FB0BE0204B1B68002B02D1FFF711
:1011400035FDFEE71C4B1B68013B1B4A13601A4B25
:101150001A681A4913469B0013449B000B441B68F2
:10116000002BE8D0144B1A6813469B0013449B00D5
:10117000124A13447B607B685B685A687B685A60DC
:101180007B685A687B6808339A4204D17B685B6845
:101190005A687B685A607B685B68DB68044A136046
:1011A0000837BD4680BD00BF9C130020A41300205B
:1011B00050120020441700089413002054120020FD
:1011C00080B582B000AF786000F08AF8FFF798FB36
:1011D000FAE700BF80B586B000AFF860B9607A600A
:1011E0003B6000237B6113E0BA687B691344197884
:1011F000FA687B69134430330A461A71BA687B690E
:1012000013441B78002B00D105E07B6901337B611F
:101210007B69072BE8D9FB68002283F83B207B68B9
:10122000092B01D909237B60FB687A68DA62FB68C5
:101230007A68DA63FB6804331846FFF78BFBFB68B8
:1012400018331846FFF786FBFB68FA681A617B685B
:10125000C3F10A02FB689A61FB68FA685A621837A0
:10126000BD4680BD80B582B000AF00237B600CE03E
:101270007A6813469B0013449B00114A1344184696
:10128000FFF748FB7B6801337B607B68092BEFD954
:101290000C48FFF73FFB0C48FFF73CFB0B48FFF700
:1012A00039FB0B48FFF736FB0A48FFF733FB0A4BC5
:1012B000044A1A60094B044A1A600837BD4680BDCB
:1012C000541200201C130020301300204C13002067
:1012D00060130020781300204413002048130020DE
:1012E00080B582B000AF28E0FFF794FD164B1B6875
:1012F000002B0CBF01230023DBB27B60FFF798FDBE
:101300007B68002B19D1FFF72FFC0F4BDB68DB68E4
:101310003B603B6804331846FFF74CFB0B4B1B68E4
:10132000013B0A4A13600A4B1B68013B084A1360E1
:10133000FFF72AFC386800F03FF8054B1B68002BCC
:10134000D2D10837BD4680BD601300208C13002029
:101350007413002080B584B000AF03463960FB8071
:101360004020FFF739F9F860FB68002B1FD03B687D
:10137000002B06D1FB889B001846FFF72DF903468A
:1013800000E03B68FA681363FB681B6B002B05D118
:10139000F868FFF7AFF90023FB6008E0FB681A6B01
:1013A000FB889B001046A5211A4600F079F9FB68DE
:1013B00018461037BD4680BD80B582B000AF78605A
:1013C0007B681B6B1846FFF795F97868FFF792F971
:1013D0000837BD4680BD00BF80B483B000AF034670
:1013E000FB71094BFA7992B29A8100BF074B1B68D7
:1013F000002BFBD0044B9B899BB2DBB218460C3709
:10140000BD465DF8047B7047003001400401264270
:1014100080B582B000AF0346FB71084B00221A6012
:10142000074B00221A60FB791846FFF7D5FF034BE4
:1014300001221A600837BD4680BD00BFA0024242AB
:101440009C02424280B584B000AF0346FB710A4B58
:1014500000221A60094B01221A60FB791846FFF737
:10146000BBFF0346FB73044B01221A60FB7B18464B
:101470001037BD4680BD00BFA00242429C024242DE
:1014800080B500AF2D4A2D4B1B6B43F01103136346
:101490002B4805210222FEF72DFF294805210522B0
:1014A000FEF768FF264805210322FEF743FF244884
:1014B00006210222FEF71EFF214806210522FEF723
:1014C00059FF1F4806210322FEF734FF1C4807215D
:1014D0000222FEF70FFF1A4807210522FEF74AFFF6
:1014E000174807210322FEF725FF1648072101228E
:1014F000FEF700FF134807210322FEF71BFF1148E8
:1015000008210122FEF7F6FE0E4808210322FEF70D
:1015100011FF0C4809210122FEF7ECFE09480921C0
:101520000322FEF707FF054A044B5B6C43F480532C
:101530005364054B4FF459721A8080BD0038024045
:1015400000000240001002400030014080B582B02F
:1015500000AF7860EF20FFF75BFF0320FFF772FF1B
:101560008020FFF76FFF0220FFF76CFFCF20FFF70F
:101570004FFF0020FFF766FFC120FFF763FF302019
:10158000FFF760FFED20FFF743FF6420FFF75AFFEE
:101590000320FFF757FF1220FFF754FF8120FFF7CA
:1015A00051FFE820FFF734FF8520FFF74BFF0020B5
:1015B000FFF748FF7820FFF745FFCB20FFF728FF14
:1015C0003920FFF73FFF2C20FFF73CFF0020FFF7FB
:1015D00039FF3420FFF736FF0220FFF733FFF720F3
:1015E000FFF716FF2020FFF72DFFEA20FFF710FF7F
:1015F0000020FFF727FF0020FFF724FFFEE700BFD2
:1016000080B584B004AFFEF72FFEFEF76FFFFFF743
:1016100037FF00230093002301930023029300234C
:1016200003930448044940220023FFF711FBFFF70E
:10163000BFFBFEE74D15000858170008032A70B4D9
:1016400026D940EA01039B0711D004780D78AC42FB
:1016500022D10244431C05E013F8014B11F8015F4D
:10166000AC4219D19342F7D1002070BC70470C46B0
:1016700003461E682568AE421846214603F104035E
:1016800004F1040404D1043A032A18462146F0D890
:10169000002ADAD11046E8E7601B70BC704700BF33
:1016A00070B4840746D0541E002A41D0CDB2034600
:1016B00002E0621EE4B3144603F8015B9A07F8D116
:1016C000032C2ED9CDB245EA05250F2C45EA054558
:1016D00019D903F110022646103E0F2E42F8105C75
:1016E00042F80C5C42F8085C42F8045C02F110021B
:1016F000F2D8A4F1100222F00F0204F00F0410320D
:10170000032C13440DD91E462246043A032A46F8F8
:10171000045BFAD8221F22F003020432134404F0BF
:1017200003042CB1C9B21C4403F8011BA342FBD132
:1017300070BC704714460346C2E700BF49444C459D
:1017400000000000A5A5A5A5A5A5A5A5A5A5A5A5DD
:10175000A5A5A5A5A5A5A5A56C636400F8B500BFC2
:10176000F8BC08BC9E467047AD010008F8B500BF44
:0C177000F8BC08BC9E46704789010008C8
:0C177C00F80F0000AAAAAAAAFFFFFFFFB6
:04000005080001E509
:00000001FF
