:020000040800F2
:100000009804002089010008910A0008910A00085C
:10001000910A0008910A0008910A0008910A000854
:10002000910A0008910A0008910A0008910A000844
:10003000910A0008910A0008910A0008610400086A
:10004000910A0008910A0008910A0008910A000824
:10005000910A0008910A0008910A0008910A000814
:10006000910A0008910A0008910A0008910A000804
:10007000910A0008910A0008910A0008910A0008F4
:10008000910A0008910A0008910A0008910A0008E4
:10009000910A0008910A0008910A0008910A0008D4
:1000A000910A0008910A0008910A0008910A0008C4
:1000B000910A0008910A0008910A0008910A0008B4
:1000C000910A0008910A0008910A0008910A0008A4
:1000D000910A0008910A0008910A0008A108000886
:1000E000910A0008910A0008910A0008910A000884
:1000F000910A0008910A0008910A0008910A000874
:10010000910A0008910A0008910A0008910A000863
:10011000910A0008910A0008910A0008910A000853
:10012000910A0008910A0008910A0008910A000843
:10013000910A0008910A0008910A0008910A000833
:10014000910A0008910A0008910A0008910A000823
:10015000910A0008910A0008910A0008910A000813
:10016000910A0008910A0008910A0008910A000803
:10017000910A0008910A0008910A0008910A0008F3
:10018000910A0008910A0008104880F309880220AB
:1001900080F31488BFF36F8F0D4880470D490E4AD6
:1001A0000E4B9A423EBF51F8040B42F8040BF8E79D
:1001B00000200B490B4A91423CBF41F8040BFAE77F
:1001C0000948804709488047FEE7704798080020A3
:1001D000CB010008B00A0008000000200000002049
:1001E0000000002094020020CB0100083508000820
:1001F00080B58CB000AF7860396000233B6200238B
:10020000FB610023BB6100237B61424B01221A602A
:10021000386800F0A1F80223FB6247E07A68FB6AC5
:10022000B2FBF3F33B613B693B4A934203D93B6921
:100230003A4A934200D936E04023BB622FE03B6943
:10024000BA6A02FB03F3FB60FB68354A934203D9A9
:10025000FB68344A934200D91EE002237B6218E017
:10026000FA687B6AB2FBF3F3BB60BA683B689A42F8
:1002700000D90BE0BA687B699A4207D9BB687B61F9
:10028000FB6A3B62BB6AFB617B6ABB617B6A0233D0
:100290007B627B6A082BE3D9BB6A0133BB62BB6A12
:1002A000B3F5D87FCBD9FB6A0133FB62FB6A3F2BE6
:1002B000B4D91D49FB699A013B6A1A43BB695B08C3
:1002C000013B1B04134343F014634B60164B4FF484
:1002D00014429A6000BF154B1B68002BFBD0144BD7
:1002E00001221A6000BF134B1B68002BFBD00E4A83
:1002F0000D4B9B6843F00203936000BF0A4B9B6861
:1003000003F00C03082BF9D17B6918463037BD4642
:1003100080BD00BF400047423F420F0080841E0066
:10032000FF8FD00300CCBF19003802404400474281
:10033000600047426400474280B400AF054A054B65
:10034000D3F8883043F47003C2F88830BD465DF8B6
:10035000047B704700ED00E080B485B000AF7860AA
:100360007B68DB090D4AA2FB03239B0AFB60FB6849
:1003700003F00703FB600A4AFB681360084AFB6846
:1003800043F4C0531360064AFB6843F4E063136010
:100390001437BD465DF8047B704700BFC7541E018B
:1003A000003C024080B483B000AF03463960FB716B
:1003B00097F90730002B0BDA0D49FB7903F00F0397
:1003C000043B3A68D2B21201D2B20B441A7609E069
:1003D000084997F907303A68D2B21201D2B20B44F9
:1003E00083F800230C37BD465DF8047B704700BFDF
:1003F00000ED00E000E100E080B582B000AF786081
:100400007B68B3F1807F01D3012311E00A4A7B6846
:1004100023F07F43013B53604FF0FF300F21FFF784
:10042000C1FF054B00229A60034B07221A6000238C
:1004300018460837BD4680BD10E000E080B582B0A8
:1004400000AF78607B68054AA2FB03239B0C18462B
:10045000FFF7D2FF0837BD4680BD00BF83DE1B43D8
:1004600080B400AF064B1B68002B04D0044B1B6804
:10047000013B034A1360BD465DF8047B704700BF33
:100480000000002080B400AF054A054B1B6B6FEAEB
:1004900053236FEA43231363BD465DF8047B704723
:1004A0000038024080B48BB000AFF860B9607A6069
:1004B000FB681B683B62BB685B001A4603239340E2
:1004C000DB431A463B6A13403B627B6803F00F0331
:1004D000BA68520093403A6A13433B62FB683A6A37
:1004E0001A60FB685B68FB61BB68012202FA03F3D8
:1004F000DB431A46FB691340FB617B6803F0F003A2
:100500001A09BB6802FA03F3FA691343FB61FB683B
:10051000FA695A60FB689B68BB61BB685B001A465E
:1005200003239340DB431A46BB691340BB617B68DE
:1005300003F470631B0ABA6852009340BA6913430C
:10054000BB61FB68BA699A60FB68DB687B61BB686A
:100550005B001A4603239340DB431A467B69134032
:100560007B617B6803F470431B0BBA6852009340B5
:100570007A6913437B61FB687A69DA60BB68072B91
:1005800002D800237B6204E001237B62BB68083B46
:10059000BB60FB687A6A083253F822303B61BB6863
:1005A0009B001A460F239340DB431A463B691340D6
:1005B0003B617B6803F470231B0CBA689200934084
:1005C0003A6913433B61FB687A6A0832396943F838
:1005D00022102C37BD465DF8047B704780B584B08F
:1005E00000AF0346FB71FB1D1E201946012200F0DF
:1005F00065F807F10F031E201946012200F0BCF830
:10060000FB7B18461037BD4680BD00BF80B500AFEC
:100610000A20FFF7E3FF0346482B0BD10B20FFF71F
:10062000DDFF0346342B05D10C20FFF7D7FF03462F
:10063000332B01D00023FFE7184680BD80B500AF03
:100640001A480A211A4AFFF72DFF18480B21184AA9
:10065000FFF728FF174A174B1B6C43F48003136402
:10066000154A154B1B889BB26FEA43436FEA53430D
:100670009BB21380104B00221A800F4A0E4B9B88AE
:100680009BB243F02A039BB293800B4BD2229A83F6
:10069000094B2B221A84084A074B1B889BB243F450
:1006A000806343F001039BB2138080BD00040240CD
:1006B00012030400003802400058004080B485B0A6
:1006C00000AF03463960FB711346BB71294A294BC1
:1006D0001B889BB243F480739BB2138000BF254BF1
:1006E0009B8A9BB203F00103002BF8D0214AFB79CF
:1006F0009BB25B009BB2138200BF1E4B9B8A9BB2D6
:1007000003F00203002BF8D01A4B1B8B9BB2FB604B
:100710001EE000BF174B9B8A9BB203F08003002BA7
:10072000F8D014493B685A1C3A601B789BB20B8284
:1007300000BF104B9B8A9BB203F08003002BF8D0C4
:1007400000BF0C4B9B8A9BB203F00403002BF8D133
:10075000BB795A1EBA71002BDBD1064A054B1B88A8
:100760009BB243F400739BB213801437BD465DF80F
:10077000047B70470058004080B485B000AF03464A
:100780003960FB711346BB71294A294B1B889BB208
:1007900043F480739BB2138000BF254B9B8A9BB2AE
:1007A00003F00103002BF8D0214AFB795B009BB2D8
:1007B00043F001039BB29BB2138200BF1C4B9B8A88
:1007C0009BB203F00203002BF8D0194B1B8B9BB29A
:1007D000FB601AE0BB79002B07D1154A144B1B882C
:1007E0009BB223F480639BB2138000BF104B9B8AA3
:1007F0009BB203F04003002BF8D03B685A1C3A60D0
:100800000B4A128A92B2D2B21A70BB795A1EBA71CE
:10081000002BDFD1064A064B1B889BB243F4C06312
:100820009BB213801437BD465DF8047B704700BF50
:100830000058004080B500AFFFF77EFD09480A4927
:10084000FFF7D6FCFFF71EFE0748FFF7F7FD00F0A5
:10085000A5F8064800F008F9FFF7F0FEFFF7D6FE0E
:10086000FEE700BF00127A00007A030AA00A00081F
:1008700080B483B000AF0346FB71084997F9073095
:100880005B09FA7902F01F02012000FA02F241F836
:1008900023200C37BD465DF8047B704700E100E083
:1008A00080B400AF354B1B889BB203F02003002BB4
:1008B00031D0324B9B899BB203F02003002B2AD00E
:1008C0002F4B1A682F4B1B68D31A40F2FF1293422A
:1008D0000ED12A4A294B9B899BB223F020039BB25D
:1008E0009381294A284B5B6983F40043536112E0EA
:1008F000234B1B680133224A1360C3F308031F4ACA
:10090000928892B2D1B2214AD1541F4A1E4B5B69E0
:1009100083F480535361194B1B889BB203F080030F
:10092000002B27D0154B9B899BB203F08003002B33
:1009300020D0174B1A68174B1B689A4208D10F4AF0
:100940000E4B9B899BB223F080039BB2938111E0F5
:100950000A4A104B1B6801330E490B6003F07F03FA
:100960000D49CB5C9BB29380074A074B5B6983F4CC
:1009700000535361BD465DF8047B7047004800405A
:100980000402002008020020000C024004000020A5
:100990008C020020900200200C02002080B500AFE5
:1009A000174A174B1B6C43F4802313641548082126
:1009B000154AFFF777FD13480921134AFFF772FD27
:1009C000124B4FF4B6721A81104A104B9B899BB29E
:1009D00043F0AC039BB293810C4A0C4B9B899BB2B6
:1009E00043F400539BB29381084A084B9B8A9BB205
:1009F00043F080039BB293822720FFF739FF80BD2D
:100A000000380240000C024002120700004800407B
:100A100080B483B000AF0346FB7100BF0E4B1A6871
:100A20000E4B1B68D31A7F2BF8D00C4B1B6801337D
:100A30000A4A136003F07F030949FA79CA54094A44
:100A4000084B9B899BB243F080039BB293810C3788
:100A5000BD465DF8047B7047900200208C020020A8
:100A60000C0200200048004080B582B000AF7860E2
:100A700006E07B685A1C7A601B781846FFF7C8FFAF
:100A80007B681B78002BF4D10837BD4680BD00BFC2
:100A9000684620F007018D4681B400AFFEE700BF35
:100AA0005B6F6B5D205553415254330D0A000000BB
:040000050800018965
:00000001FF
