:020000040800F2
:100000009804002089010008310C0008310C000818
:10001000310C0008310C0008310C0008310C0008CC
:10002000310C0008310C0008310C0008310C0008BC
:10003000310C0008310C0008310C0008B504000830
:10004000310C0008310C0008310C0008310C00089C
:10005000310C0008310C0008310C0008310C00088C
:10006000310C0008310C0008310C0008310C00087C
:10007000310C0008310C0008310C0008310C00086C
:10008000310C0008310C0008310C0008310C00085C
:10009000310C0008310C0008310C0008310C00084C
:1000A000310C0008E1090008310C0008310C00088F
:1000B000310C0008310C0008310C0008310C00082C
:1000C000310C0008310C0008310C0008310C00081C
:1000D000310C0008310C0008310C0008410A0008FE
:1000E000310C0008310C0008310C0008310C0008FC
:1000F000310C0008310C0008310C0008310C0008EC
:10010000310C0008310C0008310C0008310C0008DB
:10011000310C0008310C0008310C0008310C0008CB
:10012000310C0008310C0008310C0008310C0008BB
:10013000310C0008310C0008310C0008310C0008AB
:10014000310C0008310C0008310C0008310C00089B
:10015000310C0008310C0008310C0008310C00088B
:10016000310C0008310C0008310C0008310C00087B
:10017000310C0008310C0008310C0008310C00086B
:10018000310C0008310C0008104880F30988022067
:1001900080F31488BFF36F8F0D4880470D490E4AD6
:1001A0000E4B9A423EBF51F8040B42F8040BF8E79D
:1001B00000200B490B4A91423CBF41F8040BFAE77F
:1001C0000948804709488047FEE7704798080020A3
:1001D000CB010008540C00080000002000000020A3
:1001E0000000002094020020CB01000885090008CF
:1001F00080B58CB000AF7860396000233B6200238B
:10020000FB610023BB6100237B61424B01221A602A
:10021000386800F0A1F80223FB6247E07A68FB6AC5
:10022000B2FBF3F33B613A693B4B9A4203D93A691B
:100230003A4B9A4200D936E04023BB622FE03B693B
:10024000BA6A02FB03F3FB60FA68354B9A4203D9A2
:10025000FA68344B9A4200D91EE002237B6218E010
:10026000FA687B6AB2FBF3F3BB60BA683B689A42F8
:1002700000D90BE0BA687B699A4207D9BB687B61F9
:10028000FB6A3B62BB6AFB617B6ABB617B6A0233D0
:100290007B627B6A082BE3D9BB6A0133BB62BB6A12
:1002A000B3F5D87FCBD9FB6A0133FB62FB6A3F2BE6
:1002B000B4D91D4BFA6991013A6A1143BA695208DF
:1002C000013A12040A4342F014625A60164B4FF48A
:1002D00014429A6000BF154B1B68002BFBD0144BD7
:1002E00001221A6000BF134B1B68002BFBD00E4B82
:1002F0000D4A926842F002029A6000BF0A4B9B6866
:1003000003F00C03082BF9D17B6918463037BD4642
:1003100080BD00BF400047423F420F0080841E0066
:10032000FF8FD00300CCBF19003802404400474281
:10033000600047426400474280B400AF054B054A65
:10034000D2F8882042F47002C3F88820BD465DF8D8
:10035000047B704700ED00E080B485B000AF7860AA
:100360007B68DA090D4BA3FB02139B0AFB60FB6859
:1003700003F00703FB600A4BFA681A60084BFA683F
:1003800042F4C0521A60064BFA6842F4E0621A6006
:100390001437BD465DF8047B704700BFC7541E018B
:1003A000003C024080B483B000AF03463960FB716B
:1003B00097F90730002B0BDA0D49FB7903F00F0397
:1003C000043B3A68D2B21201D2B20B441A7609E069
:1003D000084997F907303A68D2B21201D2B20B44F9
:1003E00083F800230C37BD465DF8047B704700BFDF
:1003F00000ED00E000E100E080B582B000AF786081
:100400007B68B3F1807F01D3012311E00A4B7A6846
:1004100022F07F42013A5A604FF0FF300F21FFF780
:10042000C1FF054B00229A60034B07221A6000238C
:1004300018460837BD4680BD10E000E080B483B0A8
:1004400000AF78607A68064B1A6000BF044B1B68E7
:10045000002BFBD10C37BD465DF8047B704700BF15
:100460000000002080B584B000AF78600023FB60FE
:1004700006E04FF47A70FFF7E1FFFB680133FB60A1
:10048000FA687B689A42F4D31037BD4680BD00BF3E
:1004900080B582B000AF78607A68054BA3FB021389
:1004A0009B0C1846FFF7A8FF0837BD4680BD00BF6C
:1004B00083DE1B4380B400AF064B1B68002B04D0C7
:1004C000044B1B685A1E034B1A60BD465DF8047B43
:1004D000704700BF0000002080B400AF054A054B04
:1004E0001B6B6FEA53236FEA43231363BD465DF82A
:1004F000047B70470038024080B48BB000AFF860D6
:10050000B9607A60FB681B683B62BB685B000322D2
:1005100002FA03F3DB433A6A13403B627B6803F061
:100520000F02BB685B0002FA03F33A6A13433B62B3
:10053000FB683A6A1A60FB685B68FB61BB68012272
:1005400002FA03F3DB43FA691340FB617B6803F0B3
:10055000F0031A09BB6802FA03F3FA691343FB615B
:10056000FB68FA695A60FB689B68BB61BB685B000B
:10057000032202FA03F3DB43BA691340BB617B68D1
:1005800003F470631A0ABB685B0002FA03F3BA69EA
:100590001343BB61FB68BA699A60FB68DB687B61E7
:1005A000BB685B00032202FA03F3DB437A69134062
:1005B0007B617B6803F470431A0BBB685B0002FA33
:1005C00003F37A6913437B61FB687A69DA60BB687D
:1005D000072B02D800237B6204E001237B62BB6807
:1005E000083BBB60FB687A6A083253F822303B61F3
:1005F000BB689B000F2202FA03F3DB433A69134006
:100600003B617B6803F470231A0CBB689B0002FA01
:1006100003F33A6913433B61FB687A6A083239692C
:1006200043F822102C37BD465DF8047B704700BFAD
:1006300080B48FB000AFF860B9607A6007F114033E
:100640007B637B680A2B04D1FB68002B01DA012352
:1006500000E00023BB62BB6A002B03D0FB685B4257
:100660003B6323E0FB683B6320E07A683B6BB3FBB2
:10067000F2F102FB01F29B1A7B627B683A6BB2FBE0
:10068000F3F33B637B6A092B08DC7B6B5A1C7A63B0
:100690007A6AD2B23032D2B21A7007E07B6B5A1C3F
:1006A0007A637A6AD2B25732D2B21A703B6B002B9D
:1006B000DBD107F114037A6B9A42D6D07A6B07F13B
:1006C0001403D31AFB62BB6A002B08D0BB685A1C08
:1006D000BA602D221A70FB6A0133FB6209E008E060
:1006E000BB685A1CBA607A6B013A7A637A6B1278EB
:1006F0001A7007F114037A6B9A42F1D8FB6A184614
:100700003C37BD465DF8047B704700BF80B500AF45
:1007100019480821194AFFF7EFFE17480921174A1F
:10072000FFF7EAFE164B164A126C42F400121A64E6
:10073000144A144B1B889BB26FEA43436FEA53433E
:100740009BB213800F4B0F4A128892B2C2F30E0273
:1007500092B21A800B4B12229A800A4B13221A84EF
:10076000084B5A229A83074B064A128892B242F0EB
:10077000010292B21A8080BD0004024012110400EE
:10078000003802400054004080B485B000AF0246FB
:100790000B46FA71BB71254B244A128892B242F47F
:1007A000807292B21A8000BF204B9B8A9BB203F0EA
:1007B0000103002BF8D01D4B9B8A9BB2FB601B4BA7
:1007C000FA7992B21A8200BF184B9B8A9BB203F04F
:1007D0000203002BF8D0154B9B8A9BB2FB60134B96
:1007E0001B8B9BB2FB6000BF104B9B8A9BB203F03C
:1007F0008003002BF8D00D4BBA7992B21A8200BF59
:100800000A4B9B8A9BB203F08003002BF8D0074B66
:100810009B8A064B054A128892B242F4007292B249
:100820001A801437BD465DF8047B704700540040C1
:1008300080B485B000AF3A600246FA710A46BA71D8
:100840007B71434B424A128892B242F4807292B258
:100850001A8000BF3E4B9B8A9BB203F00103002B22
:10086000F8D03B4BFA7992B21A8200BF384B9B8A80
:100870009BB203F00203002BF8D0354B1B8B9BB2CD
:10088000FB6000BF324B9B8A9BB203F08003002BBE
:10089000F8D02F4BBA7992B21A8200BF2C4B9B8AA8
:1008A0009BB203F00403002BF8D0294B284A12888E
:1008B00092B242F4807292B21A8000BF244B9B8A9B
:1008C0009BB203F00103002BF8D0214BFA7942F0E0
:1008D0000102D2B21A8200BF1D4B9B8A9BB203F069
:1008E0000203002BF8D01A4B1B8B9BB2FB601EE05F
:1008F0007B79012B08D1164B154A128892B222F44B
:10090000806292B21A80FFE700BF114B9B8A9BB2B4
:1009100003F04003002BF8D03B685A1C3A600C4AA5
:10092000128A92B2D2B21A707B79013B7B717B79C9
:10093000002BDDD1064B064A128892B242F40072B7
:1009400092B21A801437BD465DF8047B704700BF31
:100950000054004080B582B000AF77205121FFF7EE
:1009600013FF0A20FFF77EFD00237B607B68772062
:1009700000211A460323FFF75BFF7B681846083700
:10098000BD4680BD80B584B000AFFFF7D5FC1148EF
:100990001149FFF72DFCFFF79FFD0F48FFF778FD8A
:1009A00000F0CCF80D4800F02FF9FFF7AFFEFFF78D
:1009B000D1FFF860FA683B46104619461022FFF74F
:1009C00037FE3B46184600F01FF96420FFF74AFD4A
:1009D000EDE700BF00127A00007A030A400C00081D
:1009E00080B400AF094B1B8A9BB203F00103002BBC
:1009F00007D0064B054A128A92B222F0010292B247
:100A00001A82BD465DF8047B704700BF00000140BC
:100A100080B483B000AF0346FB71084B97F9072001
:100A20005209F97901F01F01012000FA01F143F8A0
:100A300022100C37BD465DF8047B704700E100E0F2
:100A400080B400AF354B1B889BB203F02003002B12
:100A500031D0324B9B899BB203F02003002B2AD06C
:100A60002F4B1A682F4B1B68D21A40F2FF139A4281
:100A70000ED12A4B294A928992B222F0200292B2D8
:100A80009A81294B284A526982F400425A6112E045
:100A9000234B1B680133224A1360C3F308031F4A28
:100AA000928892B2D1B2214AD1541F4B1E4A526948
:100AB00082F480525A61194B1B889BB203F0800369
:100AC000002B26D0154B9B899BB203F08003002B93
:100AD0001FD0174B1A68174B1B689A4208D10F4B4F
:100AE0000E4A928992B222F0800292B29A8110E06C
:100AF0000A4A104B1B6801330E490B6003F07F0359
:100B00000D49CB5C9380084B074A526982F400522E
:100B10005A61BD465DF8047B704700BF0048004045
:100B20000402002008020020000C02400400002003
:100B30008C020020900200200C02002080B500AF43
:100B4000174B174A126C42F480221A641548082188
:100B5000154AFFF7D1FC13480921134AFFF7CCFCD3
:100B6000124B4FF4B6721A81104B104A928992B20E
:100B700042F0AC0292B29A810C4B0C4A928992B22A
:100B800042F4005292B29A81084B084A928A92B279
:100B900042F0800292B29A822720FFF739FF80BD8F
:100BA00000380240000C02400212070000480040DA
:100BB00080B483B000AF0346FB7100BF0E4B1A68D0
:100BC0000E4B1B68D31A7F2BF8D00C4B1B680133DC
:100BD0000A4A136003F07F03094AF979D154094B9B
:100BE000084A928992B242F0800292B29A810C37FE
:100BF000BD465DF8047B7047900200208C02002007
:100C00000C0200200048004080B582B000AF786040
:100C100006E07B685A1C7A601B781846FFF7C8FF0D
:100C20007B681B78002BF4D10837BD4680BD00BF20
:100C3000684620F007018D4681B400AFFEE700BF93
:100C400074657374207573617274332E2E2E0D0AC1
:040C500000000000A0
:040000050800018965
:00000001FF
