:020000040800F2
:100000000000002031010008ED030008ED030008A6
:10001000ED030008ED030008ED030008ED03000800
:10002000ED030008ED030008ED030008ED030008F0
:10003000ED030008ED030008ED030008ED030008E0
:10004000ED030008ED030008ED030008ED030008D0
:10005000ED030008ED030008ED030008ED030008C0
:10006000ED030008ED030008ED030008ED030008B0
:10007000ED030008ED030008ED030008ED030008A0
:10008000ED030008ED030008ED030008ED03000890
:10009000ED030008ED030008ED030008ED03000880
:1000A000ED030008ED030008ED030008ED03000870
:1000B000ED030008ED030008ED030008ED03000860
:1000C000ED030008ED030008ED030008ED03000850
:1000D000ED030008ED030008ED030008ED03000840
:1000E000ED030008ED030008ED030008ED03000830
:1000F000ED030008ED030008ED030008ED03000820
:10010000ED030008ED030008ED030008ED0300080F
:10011000ED030008ED030008ED030008ED030008FF
:10012000ED030008ED030008ED030008ED030008EF
:10013000104880F30988022080F31488BFF36F8F82
:100140000D4880470D490E4A0E4B9A423EBF51F86A
:10015000040B42F8040BF8E700200B490B4A9142CC
:100160003CBF41F8040BFAE709488047094880473B
:10017000FEE770470004002073010008FC0300083C
:1001800000000020000000200000002000000020EF
:10019000730100088D02000880B400AF1E4B7D2261
:1001A0009A611E4B4FF088321A601C4B4FF0883218
:1001B0005A601A4B0022DA60194B4FF088321A60ED
:1001C000174B4FF088325A60154B0022DA60154BFE
:1001D0004FF088321A60134B4FF088325A60114B3F
:1001E0000022DA60104B4FF088321A600E4B4FF04D
:1001F00088325A600C4B0022DA600C4B4FF0883288
:100200001A600A4B4FF088325A60084B0022DA60BD
:10021000BD465DF8047B70470010024000080140B5
:10022000000C014000100140001401400018014082
:1002300080B487B000AFF860B9607A60FB687B611A
:10024000BB68072B05D97B6904337B61BB68083B1E
:10025000BB607B691B683B61BB689B001A460F2330
:100260009340DB431A463B6913403B61BB689B00EC
:100270001A467B6893403A6913433B617B693A694C
:100280001A601C37BD465DF8047B704780B582B0AC
:1002900000AF144B3B6000F0A3F81348134900F083
:1002A00051F8134801210122FFF7C2FF00237B60B0
:1002B00002E07B6801337B607A683B689A42F8D33E
:1002C0000C4B01221A6000237B6002E07B68013343
:1002D0007B607A683B689A42F8D3064B00221A602A
:1002E000E4E700BF40420F0000127A0000A24A0477
:1002F000000C01408481214280B485B000AF786059
:100300007B680D4A934202D80023FB6008E07B68BB
:100310000A4A934202D80123FB6001E00223FB60FA
:100320000749074B1A68FB6813430B601437BD4637
:100330005DF8047B704700BFFF356E01FF6BDC0288
:100340000020024080B584B000AF786039601F4B58
:1003500001221A603868FFF7CFFF3A687B68B2FB6A
:10036000F3F3FB60FB68102B01D91023FB607B6863
:10037000FA6802FB03F33B601549154B5A68FB68AA
:10038000023B9B04134343F482334B6000BF114B89
:100390001B68002BFBD0104B01221A6000BF0F4BD3
:1003A0001B68002BFBD00A4A094B5B6843F0020331
:1003B000536000BF064B5B6803F00C03082BF9D1B8
:1003C0003B6818461037BD4680BD00BF4000424222
:1003D0000010024044004242600042426400424237
:1003E00080B500AFFFF7D8FE80BD00BF684620F0A3
:0C03F00007018D4681B400AFFEE700BF9E
:0400000508000131BD
:00000001FF
